:100000000C94B5000C94D2000C94D2000C94D20045
:100010000C94D2000C94D2000C94D2000C94D20018
:100020000C94D2000C94D2000C94D2000C94D20008
:100030000C94D2000C9435040C94D2000C94D20091
:100040000C94D2000C94D2000C94D2000C94D200E8
:100050000C94D2000C94D2000C94D2000C94D200D8
:100060000C94D2000C94D2006E616E00696E660032
:1000700000407A10F35A00A0724E18090010A5D45F
:10008000E80000E87648170000E40B54020000CABC
:100090009A3B000000E1F505000080969800000002
:1000A00040420F000000A086010000001027000061
:1000B0000000E803000000006400000000000A00E7
:1000C000000000000100000000002C76D888DC67EA
:1000D0004F0823DFC1DFAE59E1B1B796E5E3E45342
:1000E000C63AE651997696E8E6C28426EB898C9B5F
:1000F00062ED407C6FFCEFBC9C9F40F2BAA56FA5FF
:10010000F490055A2AF75C936B6CF9676DC11BFC80
:10011000E0E40D47FEF520E6B500D0ED902E03009B
:10012000943577050080841E080000204E0A0000E8
:1001300000C80C333333330F986E12831141EF8DA7
:100140002114893BE65516CFFEE6DB18D1844B38E7
:100150001BF77C1D901DA4BBE424203284725E2218
:100160008100C9F124ECA1E53D2711241FBECFEF8A
:10017000D8E0DEBFCDBF11E0A0E0B1E0EAE9F3E1F5
:1001800002C005900D92A035B107D9F721E0A0E596
:10019000B1E001C01D92A935B207E1F70E944C04FD
:1001A0000C94CB090C940000AFE0B0E0EAEDF0E075
:1001B0000C94D6076C011B015A01FC0117821682B0
:1001C000838181FF48C39E012F5F3F4F4901F601A4
:1001D0009381F10193FD859193FF81911F01882304
:1001E00009F4E7C2853239F493FD859193FF81913B
:1001F0001F01853239F4B60190E00E940D093501E6
:100200005301E5CFF12C512C00E0003238F48B3251
:1002100009F190F48032F9F0833209F107FD34C01E
:1002200020ED280F2A3020F506FF1BC0FAE0FF9EC4
:10023000200D1124F22E05C08D3279F0803371F734
:100240000160F10193FD859193FF81911F0181115F
:10025000DCCF1AC002600460F4CF0860F2CF006106
:10026000F0CF3AE0539E200D1124522E0062E9CFC8
:100270008E3221F406FD9DC20064E3CF8C3611F46A
:100280000068DFCF8836E9F29BEB980F933008F0D7
:100290005FC00061805E06FD02C046E0F42E102FB4
:1002A0001F73853609F05BC0106417FF61C08F2D86
:1002B0009BE39F1508F48BE344244394480E27E006
:1002C0003501F4E06F0E711CF5016081718182814E
:1002D0009381042DA4010E940D085C01F981FC8723
:1002E000F0FF03C00DE2F3FF07C00BE211FD04C0F5
:1002F000012F047012FD00E22C852C70E22E09F40F
:1003000057C00111ABC2F3E0E12CF515A0F483E076
:10031000E52CE81A13FD08C0B60180E290E00E94C7
:100320000D09EA94E110F8CF002329F0B601802FDF
:1003300090E00E940D093C8528E6A22E20E0B22E16
:1003400033FD04C09CE6A92E90E0B92E107122C0A6
:100350009BE9980F933008F033C10F7E9CCF86360F
:1003600011F41068A2CFFF2009F49FCFFA949DCF1B
:10037000E7E02F2DEF1518F427E037E0F32E412C9E
:100380009FCF11118052B60190E00E940D098FEFAE
:10039000A81AB80AF50184918111F3CFEE2009F46F
:1003A0002FCFB60180E290E00E940D09EA94F6CFCB
:1003B00017FF6FC04A0CFC85F4FF04C08A818133AB
:1003C00009F44A9414140CF086C028E0241510F4A3
:1003D00088E0482E85E090E017FF06C0C501B7FE13
:1003E00002C090E080E0019601110196FF2031F0FB
:1003F0002F2D30E02F5F3F4F820F931F58161906A5
:1004000019F014F0E52CE81A812F897011F4E1102D
:1004100067C0002329F0B601802F90E00E940D09EB
:1004200013FD02C0E11063C017FF7CC08501B7FE59
:1004300002C010E000E0C501841991092C016F2D64
:1004400070E0EE27FF27E61BF70BFF87EE870F3FD5
:10045000100729F4B6018EE290E00E940D09A01663
:10046000B1060CF44BC0401651060CF047C0F50124
:10047000E01BF10BE80DF91D8181015011092E855A
:100480003F8502171307E4F1B60190E00E940D09C1
:10049000DECF16FD9FCFEF2DF0E0EA15FB0534F01F
:1004A0003CEFA3163FEFB3060CF010683296E80D50
:1004B000F91D01C0FA94FF2019F082918033D1F325
:1004C00017FF88CF442443944F0CFA141B0431F0D7
:1004D0002CF0FA187FCF442443947CCFF12C7ACFB0
:1004E000B60180E290E00E940D09EA9490CFB60137
:1004F00080E390E00E940D09EA9494CF80E3BDCFA1
:10050000A016B10641F49A81963350F4953319F44C
:100510003C8534FF05C0B60190E00E940D093ECF36
:1005200081E3F9CF8A81813319F09C859F7E9C8776
:10053000B60190E00E940D09FF20A9F0B6018EE2FD
:1005400090E00E940D09F394F394E2E001E00E0FB5
:10055000E80DF92DF11D8081B60190E00E940D0992
:10056000E02F0F11F3CF85E690E014FF02C085E481
:1005700090E0B6010E940D09B7FC06C0A114B104B9
:10058000C1F4EC85E4FF15C0B194A194B1088DE2EB
:10059000B60190E00E940D0980E32AE0A216B104A2
:1005A00054F4B60190E00E940D09B601C501C09651
:1005B000B4CF8BE2EDCF8F5FFAE0AF1AB108EDCF89
:1005C0008336C9F0833771F1833509F05BC035019B
:1005D000F2E06F0E711CF501A080B1806F2D70E00C
:1005E00006FD02C06FEF7FEFC5010E94E5089D8701
:1005F0008C8700680DC0350132E0630E711CF50177
:100600008081898321E030E03D872C8754010F777A
:1006100003FD06C02C853D855216130609F0A8F48B
:10062000E52C2BC0350132E0630E711CF501A08072
:10063000B1806F2D70E006FD02C06FEF7FEFC50146
:100640000E94F0089D878C87E2CFB60180E290E09F
:100650000E940D095A94DECFF50107FD859107FF31
:1006600081915F01B60190E00E940D09E110EA94CA
:100670008C859D8501979D878C87EC85FD85EF2B6B
:1006800059F78CCE843619F0893609F074C03501DB
:1006900007FF66C0F4E06F0E711CF5016081718187
:1006A00082819381102F1F7697FF08C090958095C7
:1006B000709561957F4F8F4F9F4F10682AE030E013
:1006C000A4010E946D09A82EA818BA2C012F16FFAC
:1006D0000AC00E7FAF1438F414FF04C012FD02C02C
:1006E000012F0E7EBF2C04FF8EC0FE01EA0DF11D0E
:1006F0008081803309F080C0097EF02FF870EF2EE2
:1007000003FD90C000FF8AC0FA2CB51410F4F50C5C
:10071000FB1804FF8DC0B60180E390E00E940D0934
:1007200002FF09C088E790E001FF02C088E590E081
:10073000B6010E940D09AF1408F486C0AA940A2DD0
:1007400010E00F5F1F4F080D191DF80182918F01F6
:10075000B60190E00E940D0980169106B1F71ECEF9
:10076000F2E06F0E711CF50160817181072E000CA3
:10077000880B990B97CF102F8537A9F41F7E2AE09D
:1007800030E0350117FF2FC0F4E06F0E711CF5014A
:100790006081718182819381A4010E946D09A82EDC
:1007A000A8181F7792CF197F8F36D1F048F488357B
:1007B00091F0F601868197812F96E2E10C94F20781
:1007C000803739F08837A9F714FD146020E130E054
:1007D000D8CF1061F9CF04FD166020E132E0D1CF0F
:1007E00028E030E0CECFF2E06F0E711CF5016081A1
:1007F000718190E080E0D0CF02FD02C0B3947DCF44
:10080000B394B3947ACF802F867809F476CFF6CF5D
:10081000B60180E290E00E940D09B394B514C0F3D4
:10082000E12C77CFE52CEB18B51408F472CFF8CF94
:10083000802F867809F47FCF8BE201FF80E207FDED
:100840008DE2B60190E075CFB60180E390E00E94A2
:100850000D09FA9470CF8FEF9FEFAECF24E0E12C1B
:10086000251508F063CD84E053CD1F920F920FB68B
:100870000F9211248F939F93809150019091510179
:10088000019690935101809350019F918F910F9009
:100890000FBE0F901F901895CF93DF93CDB7DEB7A3
:1008A00028970FB6F894DEBF0FBECDBF22982A9AC4
:1008B000219A0E94690680E091E09093580180930C
:1008C0005701789481E080936F00E1E8F0E0808147
:1008D0008160808310928000712C612C1B821C82AD
:1008E0001D821E82212C312C20EF298381E48A83F2
:1008F0000F2EF4E8AF2EB12CF02D0F2EF1E8CF2EF5
:10090000D12CF02D0F2EF6E88F2E912CF02D03E533
:1009100011E00F2EFBE34F2EF1E05F2EF02D5CC0B7
:10092000FF81FF9328852F93FF92EF928FE191E053
:100930009F938F93F80185818F9384818F930E9479
:10094000FB080FB6F894DEBF0FBECDBF98C020E005
:1009500030E040E050E4F885EF816E2D7F2D8F2F41
:100960009E2F0E94D10718160CF4D4C06A946728F1
:1009700009F4FCC09E819F93ED81EF93FC81FF936E
:100980002B812F938A818F9399819F933F922F92EE
:100990005F924F92F80185818F9384818F930E949B
:1009A000FB080FB6F894DEBF0FBECDBF712C612CD3
:1009B0009FEFEFE7F4E09150E040F040E1F700C036
:1009C0000000F8012481358142E050E061E070E0F0
:1009D0008DE491E00E943D09299A91E39A95F1F7FF
:1009E00000002998F50111821082F601808180644F
:1009F0008083B59AB09AB59BFECFF5011182108223
:100A0000F60180818F7B8083B59AB09A1092510154
:100A100010925001B59BFECFF4016081718190E08E
:100A200080E00E94210725E63AE84EE554E40E9462
:100A3000AD06E62EF72E88879F8320E030E040E069
:100A400050E40E94A80688237CF020E030E04CE8C7
:100A500052E4F885EF816E2D7F2D8F2F9E2F0E94FF
:100A6000D10718160CF05CCFF8012481358140E1E4
:100A700050E061E070E08EE091E00E943D091A9B39
:100A800059C020E030E040E050E4F885EF816E2D61
:100A90007F2D8F2F9E2F0E94D10718160CF057CF55
:100AA00020E030E04CE852E4F885EF816E2D7F2D98
:100AB0008F2F9E2F0E94A806882364F598858F812A
:100AC0002E2D3F2D492F582FBB81AC81FD81EE810A
:100AD0006B2F7A2F8F2F9E2F0E94A806882344F415
:100AE000EB82FC8298859D83EF81EE83712C612CD3
:100AF00098858F812E2D3F2D492F582FF981EA811E
:100B0000622D732D8F2F9E2F0E94D10718160CF483
:100B10004DC02CCF20E030E04CE852E4F885EF8166
:100B20006E2D7F2D8F2F9E2F0E94A80688230CF0FC
:100B30001DCFDECF20E030E040E050E4F885EF81CB
:100B40006E2D7F2D8F2F9E2F0E94D107181674F4C3
:100B500020E030E04CE852E4F885EF816E2D7F2DE7
:100B60008F2F9E2F0E94A8068823D4F02F812F93C9
:100B700088858F93FF92EF92EFE2F1E0FF93EF937E
:100B8000F80185818F9384818F930E94FB080FB6B3
:100B9000F894DEBF0FBECDBF66246394712C08CFDE
:100BA000EB82FC82F885FD832F812E832E2C3F2C37
:100BB000888589839F819A83DDCE5998611111C000
:100BC00058989BB19F7040E1849F90011124892F18
:100BD000822B8BB95A9A82E08A95F1F700C05A9815
:100BE0000895589AEECF599A9AB19F709AB9811187
:100BF0000FC058985A9A82E08A95F1F700C089B1DF
:100C00005A989AB1906F9AB9599882958F700895B1
:100C1000589AF0CFCF93DF93C82FD62F82958F703D
:100C20000E94DD056D2F8C2F8F700E94DD05DF91F6
:100C3000CF910895CF93DF93C82F0E94F305D82F4B
:100C4000D295D07F8C2F0E94F3058D2BDF91CF9111
:100C5000089580E00E941A068823DCF30895509AD4
:100C6000519A529A8AB1806F8AB98FEF97ED0197A6
:100C7000F1F700C0000060E083E00E94DD058AE03B
:100C80009BE30197F1F760E083E00E94DD0580E7D8
:100C900091E00197F1F700C060E083E00E94DD057C
:100CA00096EB9A95F1F760E082E00E94DD0580E026
:100CB0000E94290660E088E20E940A0680E00E9405
:100CC000290660E088E00E940A0680E00E9429066A
:100CD00008950E942F0660E081E00E940A0681E0EC
:100CE0000E94290660E086E00E940A0680E00E94D9
:100CF000290660E08EE00E940A0680E00E94290634
:100D00000895CF93C82F80915201811111C0CB312A
:100D100039F481E08093520190E080E0CF91089512
:100D200080E00E94290661E08C2F0E940A06F4CF21
:100D300080E00E94290660E08C2F0E940A06C430E1
:100D400018F010925201E8CF81E00E942906F9CFF5
:100D50000E945C0708F481E008950E94C1060C948B
:100D600097070E94900758F00E94890740F029F4E5
:100D70005F3F29F00C94800751110C94CB070C9421
:100D800086070E94A80768F39923B1F3552391F3CE
:100D9000951B550BBB27AA2762177307840738F0EA
:100DA0009F5F5F4F220F331F441FAA1FA9F335D047
:100DB0000E2E3AF0E0E832D091505040E695001CFB
:100DC000CAF72BD0FE2F29D0660F771F881FBB1FB5
:100DD000261737074807AB07B0E809F0BB0B802D93
:100DE000BF01FF2793585F4F3AF09E3F510578F0BF
:100DF0000C9480070C94CB075F3FE4F3983ED4F348
:100E0000869577956795B795F7959F5FC9F7880F92
:100E1000911D9695879597F90895E1E0660F771FE4
:100E2000881FBB1F621773078407BA0720F0621B75
:100E3000730B840BBA0BEE1F88F7E0950895E894C6
:100E400009C097FB3EF490958095709561957F4F12
:100E50008F4F9F4F9923A9F0F92F96E9BB279395C0
:100E6000F695879577956795B795F111F8CFFAF4D0
:100E7000BB0F11F460FF1BC06F5F7F4F8F4F9F4F01
:100E800016C0882311F096E911C0772321F09EE85F
:100E9000872F762F05C0662371F096E8862F70E0C5
:100EA00060E02AF09A95660F771F881FDAF7880F9F
:100EB0009695879597F90895990F0008550FAA0BF5
:100EC000E0E8FEEF16161706E807F907C0F012165D
:100ED0001306E407F50798F0621B730B840B950B60
:100EE00039F40A2661F0232B242B252B21F40895B5
:100EF0000A2609F4A140A6958FEF811D811D089552
:100F000097F99F6780E870E060E008959FEF80ECBC
:100F1000089500240A94161617061806090608955F
:100F200000240A9412161306140605060895092EC5
:100F30000394000C11F4882352F0BB0F40F4BF2B34
:100F400011F460FF04C06F5F7F4F8F4F9F4F089574
:100F500057FD9058440F551F59F05F3F71F047956A
:100F6000880F97FB991F61F09F3F79F0879508954F
:100F7000121613061406551FF2CF4695F1DF08C06E
:100F8000161617061806991FF1CF8695710561058B
:100F900008940895E894BB2766277727CB0197F933
:100FA00008950E945C0708F48FEF08952F923F92F6
:100FB0004F925F926F927F928F929F92AF92BF9269
:100FC000CF92DF92EF92FF920F931F93CF93DF9315
:100FD000CDB7DEB7CA1BDB0B0FB6F894DEBF0FBE72
:100FE000CDBF09942A88398848885F846E847D84BF
:100FF0008C849B84AA84B984C884DF80EE80FD80C1
:101000000C811B81AA81B981CE0FD11D0FB6F89436
:10101000DEBF0FBECDBFED010895283008F027E0F8
:101020003327DA01990F311D87FD91600096610524
:10103000710539F432602E5F3D9330E32A95E1F774
:1010400008959F3F30F080387105610509F03C5FDD
:101050003C5F3D93913008F08068911DDF93CF9302
:101060001F930F93FF92EF92192F987F9695E92F78
:1010700096959695E90FFF27E653FF4F992733275B
:10108000EE24FF24A701E70105900894079428F4B3
:10109000360FE71EF81E491F511D660F771F881F68
:1010A000991F0694A1F70590079428F4E70EF81EFF
:1010B000491F561FC11D770F881F991F661F069471
:1010C000A1F70590079428F4F80E491F561FC71F73
:1010D000D11D880F991F661F771F0694A1F70590F1
:1010E000079420F4490F561FC71FD81F990F661F7A
:1010F000771F881F0694A9F784911095177041F007
:10110000D695C79557954795F794E7941A95C1F7E3
:10111000E0E7F0E06894159015913591659195910F
:1011200005907FE27395E118F10A430B560BC90B4A
:10113000D009C0F7E10CF11E431F561FC91FD01D77
:101140007EF4703311F48A95E6CFE894015030F0C4
:10115000080F0AF40027021708F4202F2395022F06
:101160007A3328F079E37D932A95E9F710C07D93CF
:101170002A9589F60694979567953795179517944C
:10118000E118F10A430B560BC90BD00998F02395CF
:101190007E9173957A3308F070E37C932013B8F74F
:1011A0007E9170617D9330F0839571E37D9370E360
:1011B0002A95E1F71124EF90FF900F911F91CF91A5
:1011C000DF91992787FD90950895FC010590615066
:1011D00070400110D8F7809590958E0F9F1F08954D
:1011E000FC016150704001900110D8F780959095F6
:1011F0008E0F9F1F0895B0E0A0E0E1E0F9E00C94AD
:10120000E607AE01475F5F4F6F8178858D819E81D4
:101210000E94D400E2E00C9402080F931F93CF9336
:10122000DF93182F092FEB018B8181FD09C01FEF80
:101230000FEF812F902FDF91CF911F910F91089584
:1012400082FF14C02E813F818C819D812817390730
:101250003CF4E881F981CF0101969983888310835A
:101260008E819F8101969F838E83E3CFE885F985E8
:10127000812F0995892BA1F3DACFB0E0A0E0E3E458
:10128000F9E00C94DC075B014A017901D90113965E
:101290002C91D0E0C0E021FF1AC0C815D905B9F0E3
:1012A0008C016C01CA0CDB1C0CC00F5F1F4FD701F7
:1012B0001896ED91FC91B701DC018C910995892B71
:1012C00031F4C8010C151D0581F72196E6CFCE013A
:1012D000CDB7DEB7ECE00C94F807FA01AA27283066
:1012E00051F1203181F1E8946F936E7F6E5F7F4FF3
:1012F0008F4F9F4FAF4FB1E03ED0B4E03CD0670F6F
:10130000781F891F9A1FA11D680F791F8A1F911DC1
:10131000A11D6A0F711D811D911DA11D20D009F411
:1013200068943F912AE0269F11243019305D319353
:10133000DEF6CF010895462F4770405D4193B3E03C
:101340000FD0C9F7F6CF462F4F70405D4A3318F0E3
:10135000495D31FD4052419302D0A9F7EACFB4E094
:10136000A6959795879577956795BA95C9F700974C
:101370006105710508959B01AC010A2E06945795ED
:10138000479537952795BA95C9F7620F731F841F44
:0A139000951FA01D0895F894FFCFEB
:10139A000000000200000000810600000000204F4B
:1013AA007574206F662052616E6765201BC000202D
:1013BA0020202020252E316620636D201BC0004E80
:1013CA00614E20202020204E614E00252E316620BD
:1013DA00636D2020252E316620636D20001B0100DD
:00000001FF
